{
  "_format": "hh-sol-artifact-1",
  "contractName": "CipherBook",
  "sourceName": "contracts/CipherBook.sol",
  "abi": [
    {
      "inputs": [
        {
          "internalType": "uint256",
          "name": "orderId",
          "type": "uint256"
        }
      ],
      "name": "cancelOrder",
      "outputs": [],
      "stateMutability": "nonpayable",
      "type": "function"
    },
    {
      "inputs": [
        {
          "internalType": "uint256",
          "name": "buyId",
          "type": "uint256"
        },
        {
          "internalType": "uint256",
          "name": "sellId",
          "type": "uint256"
        }
      ],
      "name": "confirmMatch",
      "outputs": [],
      "stateMutability": "nonpayable",
      "type": "function"
    },
    {
      "inputs": [],
      "name": "nextOrderId",
      "outputs": [
        {
          "internalType": "uint256",
          "name": "",
          "type": "uint256"
        }
      ],
      "stateMutability": "view",
      "type": "function"
    },
    {
      "inputs": [
        {
          "internalType": "uint256",
          "name": "",
          "type": "uint256"
        }
      ],
      "name": "orders",
      "outputs": [
        {
          "internalType": "address",
          "name": "owner",
          "type": "address"
        },
        {
          "internalType": "enum CipherBook.OrderType",
          "name": "orderType",
          "type": "uint8"
        },
        {
          "internalType": "uint64",
          "name": "price",
          "type": "uint64"
        },
        {
          "internalType": "uint64",
          "name": "amount",
          "type": "uint64"
        },
        {
          "internalType": "enum CipherBook.OrderStatus",
          "name": "status",
          "type": "uint8"
        }
      ],
      "stateMutability": "view",
      "type": "function"
    },
    {
      "inputs": [
        {
          "internalType": "uint8",
          "name": "orderType",
          "type": "uint8"
        },
        {
          "internalType": "uint64",
          "name": "price",
          "type": "uint64"
        },
        {
          "internalType": "uint64",
          "name": "amount",
          "type": "uint64"
        }
      ],
      "name": "placeOrder",
      "outputs": [],
      "stateMutability": "nonpayable",
      "type": "function"
    }
  ],
  "bytecode": "0x608060405234801561001057600080fd5b50610e5b806100206000396000f3fe608060405234801561001057600080fd5b50600436106100575760003560e01c80632a58b3301461005c5780634128ceaa1461007a578063514fcac714610096578063a85c38ef146100b2578063f02a78dd146100e6575b600080fd5b610064610102565b60405161007191906107c2565b60405180910390f35b610094600480360381019061008f919061080e565b610108565b005b6100b060048036038101906100ab919061084e565b6103fc565b005b6100cc60048036038101906100c7919061084e565b61054e565b6040516100dd95949392919061099e565b60405180910390f35b61010060048036038101906100fb9190610a56565b6105e6565b005b60005481565b600060016000848152602001908152602001600020905060006001600084815260200190815260200160002090506000600281111561014a576101496108bc565b5b8260010160089054906101000a900460ff16600281111561016e5761016d6108bc565b5b146101ae576040517f08c379a00000000000000000000000000000000000000000000000000000000081526004016101a590610b06565b60405180910390fd5b600060028111156101c2576101c16108bc565b5b8160010160089054906101000a900460ff1660028111156101e6576101e56108bc565b5b14610226576040517f08c379a000000000000000000000000000000000000000000000000000000000815260040161021d90610b72565b60405180910390fd5b6000600181111561023a576102396108bc565b5b8260000160149054906101000a900460ff16600181111561025e5761025d6108bc565b5b1461029e576040517f08c379a000000000000000000000000000000000000000000000000000000000815260040161029590610bde565b60405180910390fd5b6001808111156102b1576102b06108bc565b5b8160000160149054906101000a900460ff1660018111156102d5576102d46108bc565b5b14610315576040517f08c379a000000000000000000000000000000000000000000000000000000000815260040161030c90610c4a565b60405180910390fd5b8060000160159054906101000a900467ffffffffffffffff1667ffffffffffffffff168260000160159054906101000a900467ffffffffffffffff1667ffffffffffffffff16101561039c576040517f08c379a000000000000000000000000000000000000000000000000000000000815260040161039390610cb6565b60405180910390fd5b60018260010160086101000a81548160ff021916908360028111156103c4576103c36108bc565b5b021790555060018160010160086101000a81548160ff021916908360028111156103f1576103f06108bc565b5b021790555050505050565b60006001600083815260200190815260200160002090503373ffffffffffffffffffffffffffffffffffffffff168160000160009054906101000a900473ffffffffffffffffffffffffffffffffffffffff1673ffffffffffffffffffffffffffffffffffffffff16146104a5576040517f08c379a000000000000000000000000000000000000000000000000000000000815260040161049c90610d22565b60405180910390fd5b600060028111156104b9576104b86108bc565b5b8160010160089054906101000a900460ff1660028111156104dd576104dc6108bc565b5b1461051d576040517f08c379a000000000000000000000000000000000000000000000000000000000815260040161051490610d8e565b60405180910390fd5b60028160010160086101000a81548160ff02191690836002811115610545576105446108bc565b5b02179055505050565b60016020528060005260406000206000915090508060000160009054906101000a900473ffffffffffffffffffffffffffffffffffffffff16908060000160149054906101000a900460ff16908060000160159054906101000a900467ffffffffffffffff16908060010160009054906101000a900467ffffffffffffffff16908060010160089054906101000a900460ff16905085565b6040518060a001604052803373ffffffffffffffffffffffffffffffffffffffff1681526020018460ff166001811115610623576106226108bc565b5b6001811115610635576106346108bc565b5b81526020018367ffffffffffffffff1681526020018267ffffffffffffffff1681526020016000600281111561066e5761066d6108bc565b5b815250600160008054815260200190815260200160002060008201518160000160006101000a81548173ffffffffffffffffffffffffffffffffffffffff021916908373ffffffffffffffffffffffffffffffffffffffff16021790555060208201518160000160146101000a81548160ff021916908360018111156106f7576106f66108bc565b5b021790555060408201518160000160156101000a81548167ffffffffffffffff021916908367ffffffffffffffff16021790555060608201518160010160006101000a81548167ffffffffffffffff021916908367ffffffffffffffff16021790555060808201518160010160086101000a81548160ff02191690836002811115610785576107846108bc565b5b021790555090505060008081548092919061079f90610ddd565b9190505550505050565b6000819050919050565b6107bc816107a9565b82525050565b60006020820190506107d760008301846107b3565b92915050565b600080fd5b6107eb816107a9565b81146107f657600080fd5b50565b600081359050610808816107e2565b92915050565b60008060408385031215610825576108246107dd565b5b6000610833858286016107f9565b9250506020610844858286016107f9565b9150509250929050565b600060208284031215610864576108636107dd565b5b6000610872848285016107f9565b91505092915050565b600073ffffffffffffffffffffffffffffffffffffffff82169050919050565b60006108a68261087b565b9050919050565b6108b68161089b565b82525050565b7f4e487b7100000000000000000000000000000000000000000000000000000000600052602160045260246000fd5b600281106108fc576108fb6108bc565b5b50565b600081905061090d826108eb565b919050565b600061091d826108ff565b9050919050565b61092d81610912565b82525050565b600067ffffffffffffffff82169050919050565b61095081610933565b82525050565b60038110610967576109666108bc565b5b50565b600081905061097882610956565b919050565b60006109888261096a565b9050919050565b6109988161097d565b82525050565b600060a0820190506109b360008301886108ad565b6109c06020830187610924565b6109cd6040830186610947565b6109da6060830185610947565b6109e7608083018461098f565b9695505050505050565b600060ff82169050919050565b610a07816109f1565b8114610a1257600080fd5b50565b600081359050610a24816109fe565b92915050565b610a3381610933565b8114610a3e57600080fd5b50565b600081359050610a5081610a2a565b92915050565b600080600060608486031215610a6f57610a6e6107dd565b5b6000610a7d86828701610a15565b9350506020610a8e86828701610a41565b9250506040610a9f86828701610a41565b9150509250925092565b600082825260208201905092915050565b7f42757920636c6f73656400000000000000000000000000000000000000000000600082015250565b6000610af0600a83610aa9565b9150610afb82610aba565b602082019050919050565b60006020820190508181036000830152610b1f81610ae3565b9050919050565b7f53656c6c20636c6f736564000000000000000000000000000000000000000000600082015250565b6000610b5c600b83610aa9565b9150610b6782610b26565b602082019050919050565b60006020820190508181036000830152610b8b81610b4f565b9050919050565b7f4e6f742042555900000000000000000000000000000000000000000000000000600082015250565b6000610bc8600783610aa9565b9150610bd382610b92565b602082019050919050565b60006020820190508181036000830152610bf781610bbb565b9050919050565b7f4e6f742053454c4c000000000000000000000000000000000000000000000000600082015250565b6000610c34600883610aa9565b9150610c3f82610bfe565b602082019050919050565b60006020820190508181036000830152610c6381610c27565b9050919050565b7f5072696365206d69736d61746368000000000000000000000000000000000000600082015250565b6000610ca0600e83610aa9565b9150610cab82610c6a565b602082019050919050565b60006020820190508181036000830152610ccf81610c93565b9050919050565b7f4e6f74206f776e65720000000000000000000000000000000000000000000000600082015250565b6000610d0c600983610aa9565b9150610d1782610cd6565b602082019050919050565b60006020820190508181036000830152610d3b81610cff565b9050919050565b7f416c726561647920636c6f736564000000000000000000000000000000000000600082015250565b6000610d78600e83610aa9565b9150610d8382610d42565b602082019050919050565b60006020820190508181036000830152610da781610d6b565b9050919050565b7f4e487b7100000000000000000000000000000000000000000000000000000000600052601160045260246000fd5b6000610de8826107a9565b91507fffffffffffffffffffffffffffffffffffffffffffffffffffffffffffffffff8203610e1a57610e19610dae565b5b60018201905091905056fea2646970667358221220554654d79abc12f60ab7bd54429f9d9cb8d505f1e82a46bb635cebd0fc0f3cc364736f6c63430008140033",
  "linkReferences": {},
  "deployedLinkReferences": {}
}